{
  "_format": "hh-sol-artifact-1",
  "contractName": "NFT_ERC721",
  "sourceName": "contracts/NFT_ERC721.sol",
  "abi": [
    {
      "inputs": [
        {
          "internalType": "string",
          "name": "_name",
          "type": "string"
        },
        {
          "internalType": "string",
          "name": "_symbol",
          "type": "string"
        },
        {
          "internalType": "string",
          "name": "baseURI",
          "type": "string"
        }
      ],
      "stateMutability": "nonpayable",
      "type": "constructor"
    },
    {
      "anonymous": false,
      "inputs": [
        {
          "indexed": true,
          "internalType": "address",
          "name": "owner",
          "type": "address"
        },
        {
          "indexed": true,
          "internalType": "address",
          "name": "approved",
          "type": "address"
        },
        {
          "indexed": true,
          "internalType": "uint256",
          "name": "tokenId",
          "type": "uint256"
        }
      ],
      "name": "Approval",
      "type": "event"
    },
    {
      "anonymous": false,
      "inputs": [
        {
          "indexed": true,
          "internalType": "address",
          "name": "owner",
          "type": "address"
        },
        {
          "indexed": true,
          "internalType": "address",
          "name": "operator",
          "type": "address"
        },
        {
          "indexed": false,
          "internalType": "bool",
          "name": "approved",
          "type": "bool"
        }
      ],
      "name": "ApprovalForAll",
      "type": "event"
    },
    {
      "anonymous": false,
      "inputs": [
        {
          "indexed": true,
          "internalType": "address",
          "name": "previousOwner",
          "type": "address"
        },
        {
          "indexed": true,
          "internalType": "address",
          "name": "newOwner",
          "type": "address"
        }
      ],
      "name": "OwnershipTransferred",
      "type": "event"
    },
    {
      "anonymous": false,
      "inputs": [
        {
          "indexed": true,
          "internalType": "address",
          "name": "from",
          "type": "address"
        },
        {
          "indexed": true,
          "internalType": "address",
          "name": "to",
          "type": "address"
        },
        {
          "indexed": true,
          "internalType": "uint256",
          "name": "tokenId",
          "type": "uint256"
        }
      ],
      "name": "Transfer",
      "type": "event"
    },
    {
      "stateMutability": "payable",
      "type": "fallback"
    },
    {
      "inputs": [],
      "name": "_paused",
      "outputs": [
        {
          "internalType": "bool",
          "name": "",
          "type": "bool"
        }
      ],
      "stateMutability": "view",
      "type": "function"
    },
    {
      "inputs": [],
      "name": "_presalePrice",
      "outputs": [
        {
          "internalType": "uint256",
          "name": "",
          "type": "uint256"
        }
      ],
      "stateMutability": "view",
      "type": "function"
    },
    {
      "inputs": [],
      "name": "_publicSalePrice",
      "outputs": [
        {
          "internalType": "uint256",
          "name": "",
          "type": "uint256"
        }
      ],
      "stateMutability": "view",
      "type": "function"
    },
    {
      "inputs": [
        {
          "internalType": "address",
          "name": "to",
          "type": "address"
        },
        {
          "internalType": "uint256",
          "name": "tokenId",
          "type": "uint256"
        }
      ],
      "name": "approve",
      "outputs": [],
      "stateMutability": "nonpayable",
      "type": "function"
    },
    {
      "inputs": [
        {
          "internalType": "address",
          "name": "owner",
          "type": "address"
        }
      ],
      "name": "balanceOf",
      "outputs": [
        {
          "internalType": "uint256",
          "name": "",
          "type": "uint256"
        }
      ],
      "stateMutability": "view",
      "type": "function"
    },
    {
      "inputs": [],
      "name": "currentNumberOfWhitelistedAddresses",
      "outputs": [
        {
          "internalType": "uint8",
          "name": "",
          "type": "uint8"
        }
      ],
      "stateMutability": "view",
      "type": "function"
    },
    {
      "inputs": [],
      "name": "currentSupply",
      "outputs": [
        {
          "internalType": "uint256",
          "name": "",
          "type": "uint256"
        }
      ],
      "stateMutability": "view",
      "type": "function"
    },
    {
      "inputs": [
        {
          "internalType": "uint256",
          "name": "tokenId",
          "type": "uint256"
        }
      ],
      "name": "getApproved",
      "outputs": [
        {
          "internalType": "address",
          "name": "",
          "type": "address"
        }
      ],
      "stateMutability": "view",
      "type": "function"
    },
    {
      "inputs": [
        {
          "internalType": "address",
          "name": "owner",
          "type": "address"
        },
        {
          "internalType": "address",
          "name": "operator",
          "type": "address"
        }
      ],
      "name": "isApprovedForAll",
      "outputs": [
        {
          "internalType": "bool",
          "name": "",
          "type": "bool"
        }
      ],
      "stateMutability": "view",
      "type": "function"
    },
    {
      "inputs": [],
      "name": "maxMintPerWallet",
      "outputs": [
        {
          "internalType": "uint8",
          "name": "",
          "type": "uint8"
        }
      ],
      "stateMutability": "view",
      "type": "function"
    },
    {
      "inputs": [],
      "name": "maxSupply",
      "outputs": [
        {
          "internalType": "uint256",
          "name": "",
          "type": "uint256"
        }
      ],
      "stateMutability": "view",
      "type": "function"
    },
    {
      "inputs": [],
      "name": "maxWhitelistAddresses",
      "outputs": [
        {
          "internalType": "uint8",
          "name": "",
          "type": "uint8"
        }
      ],
      "stateMutability": "view",
      "type": "function"
    },
    {
      "inputs": [],
      "name": "mint",
      "outputs": [],
      "stateMutability": "payable",
      "type": "function"
    },
    {
      "inputs": [],
      "name": "name",
      "outputs": [
        {
          "internalType": "string",
          "name": "",
          "type": "string"
        }
      ],
      "stateMutability": "view",
      "type": "function"
    },
    {
      "inputs": [],
      "name": "owner",
      "outputs": [
        {
          "internalType": "address",
          "name": "",
          "type": "address"
        }
      ],
      "stateMutability": "view",
      "type": "function"
    },
    {
      "inputs": [
        {
          "internalType": "uint256",
          "name": "tokenId",
          "type": "uint256"
        }
      ],
      "name": "ownerOf",
      "outputs": [
        {
          "internalType": "address",
          "name": "",
          "type": "address"
        }
      ],
      "stateMutability": "view",
      "type": "function"
    },
    {
      "inputs": [],
      "name": "presaleMint",
      "outputs": [],
      "stateMutability": "payable",
      "type": "function"
    },
    {
      "inputs": [],
      "name": "renounceOwnership",
      "outputs": [],
      "stateMutability": "nonpayable",
      "type": "function"
    },
    {
      "inputs": [
        {
          "internalType": "address",
          "name": "from",
          "type": "address"
        },
        {
          "internalType": "address",
          "name": "to",
          "type": "address"
        },
        {
          "internalType": "uint256",
          "name": "tokenId",
          "type": "uint256"
        }
      ],
      "name": "safeTransferFrom",
      "outputs": [],
      "stateMutability": "nonpayable",
      "type": "function"
    },
    {
      "inputs": [
        {
          "internalType": "address",
          "name": "from",
          "type": "address"
        },
        {
          "internalType": "address",
          "name": "to",
          "type": "address"
        },
        {
          "internalType": "uint256",
          "name": "tokenId",
          "type": "uint256"
        },
        {
          "internalType": "bytes",
          "name": "data",
          "type": "bytes"
        }
      ],
      "name": "safeTransferFrom",
      "outputs": [],
      "stateMutability": "nonpayable",
      "type": "function"
    },
    {
      "inputs": [
        {
          "internalType": "address",
          "name": "operator",
          "type": "address"
        },
        {
          "internalType": "bool",
          "name": "approved",
          "type": "bool"
        }
      ],
      "name": "setApprovalForAll",
      "outputs": [],
      "stateMutability": "nonpayable",
      "type": "function"
    },
    {
      "inputs": [
        {
          "internalType": "string",
          "name": "_newBaseURI",
          "type": "string"
        }
      ],
      "name": "setBaseURI",
      "outputs": [],
      "stateMutability": "nonpayable",
      "type": "function"
    },
    {
      "inputs": [
        {
          "internalType": "bool",
          "name": "val",
          "type": "bool"
        }
      ],
      "name": "setPaused",
      "outputs": [],
      "stateMutability": "nonpayable",
      "type": "function"
    },
    {
      "inputs": [
        {
          "internalType": "uint8",
          "name": "_stage",
          "type": "uint8"
        }
      ],
      "name": "setStage",
      "outputs": [],
      "stateMutability": "nonpayable",
      "type": "function"
    },
    {
      "inputs": [],
      "name": "stage",
      "outputs": [
        {
          "internalType": "uint8",
          "name": "",
          "type": "uint8"
        }
      ],
      "stateMutability": "view",
      "type": "function"
    },
    {
      "inputs": [
        {
          "internalType": "bytes4",
          "name": "interfaceId",
          "type": "bytes4"
        }
      ],
      "name": "supportsInterface",
      "outputs": [
        {
          "internalType": "bool",
          "name": "",
          "type": "bool"
        }
      ],
      "stateMutability": "view",
      "type": "function"
    },
    {
      "inputs": [],
      "name": "symbol",
      "outputs": [
        {
          "internalType": "string",
          "name": "",
          "type": "string"
        }
      ],
      "stateMutability": "view",
      "type": "function"
    },
    {
      "inputs": [
        {
          "internalType": "uint256",
          "name": "index",
          "type": "uint256"
        }
      ],
      "name": "tokenByIndex",
      "outputs": [
        {
          "internalType": "uint256",
          "name": "",
          "type": "uint256"
        }
      ],
      "stateMutability": "view",
      "type": "function"
    },
    {
      "inputs": [
        {
          "internalType": "address",
          "name": "owner",
          "type": "address"
        },
        {
          "internalType": "uint256",
          "name": "index",
          "type": "uint256"
        }
      ],
      "name": "tokenOfOwnerByIndex",
      "outputs": [
        {
          "internalType": "uint256",
          "name": "",
          "type": "uint256"
        }
      ],
      "stateMutability": "view",
      "type": "function"
    },
    {
      "inputs": [
        {
          "internalType": "uint256",
          "name": "tokenId",
          "type": "uint256"
        }
      ],
      "name": "tokenURI",
      "outputs": [
        {
          "internalType": "string",
          "name": "",
          "type": "string"
        }
      ],
      "stateMutability": "view",
      "type": "function"
    },
    {
      "inputs": [],
      "name": "totalSupply",
      "outputs": [
        {
          "internalType": "uint256",
          "name": "",
          "type": "uint256"
        }
      ],
      "stateMutability": "view",
      "type": "function"
    },
    {
      "inputs": [
        {
          "internalType": "address",
          "name": "from",
          "type": "address"
        },
        {
          "internalType": "address",
          "name": "to",
          "type": "address"
        },
        {
          "internalType": "uint256",
          "name": "tokenId",
          "type": "uint256"
        }
      ],
      "name": "transferFrom",
      "outputs": [],
      "stateMutability": "nonpayable",
      "type": "function"
    },
    {
      "inputs": [
        {
          "internalType": "address",
          "name": "newOwner",
          "type": "address"
        }
      ],
      "name": "transferOwnership",
      "outputs": [],
      "stateMutability": "nonpayable",
      "type": "function"
    },
    {
      "inputs": [
        {
          "internalType": "address",
          "name": "",
          "type": "address"
        }
      ],
      "name": "userToNumberOfMintedNFT",
      "outputs": [
        {
          "internalType": "uint256",
          "name": "",
          "type": "uint256"
        }
      ],
      "stateMutability": "view",
      "type": "function"
    },
    {
      "inputs": [
        {
          "internalType": "address",
          "name": "_address",
          "type": "address"
        }
      ],
      "name": "whitelistAddress",
      "outputs": [],
      "stateMutability": "nonpayable",
      "type": "function"
    },
    {
      "inputs": [
        {
          "internalType": "address",
          "name": "",
          "type": "address"
        }
      ],
      "name": "whitelistedAddresses",
      "outputs": [
        {
          "internalType": "bool",
          "name": "",
          "type": "bool"
        }
      ],
      "stateMutability": "view",
      "type": "function"
    },
    {
      "inputs": [],
      "name": "withdraw",
      "outputs": [],
      "stateMutability": "nonpayable",
      "type": "function"
    },
    {
      "stateMutability": "payable",
      "type": "receive"
    }
  ],
  "bytecode": "0x608060405266038d7ea4c68000600c5566071afd498d0000600d55612710600f556011805463ff00ffff19166364000a001790553480156200004057600080fd5b506040516200282b3803806200282b83398101604081905262000063916200027d565b8251839083906200007c90600090602085019062000124565b5080516200009290600190602084019062000124565b505050620000af620000a9620000ce60201b60201c565b620000d2565b8051620000c490600b90602084019062000124565b505050506200035d565b3390565b600a80546001600160a01b038381166001600160a01b0319831681179093556040519116919082907f8be0079c531659141344cd1fd0a4f28419497f9722a3daafe3b4186f6b6457e090600090a35050565b82805462000132906200030a565b90600052602060002090601f016020900481019282620001565760008555620001a1565b82601f106200017157805160ff1916838001178555620001a1565b82800160010185558215620001a1579182015b82811115620001a157825182559160200191906001019062000184565b50620001af929150620001b3565b5090565b5b80821115620001af5760008155600101620001b4565b600082601f830112620001db578081fd5b81516001600160401b0380821115620001f857620001f862000347565b604051601f8301601f19908116603f0116810190828211818310171562000223576200022362000347565b816040528381526020925086838588010111156200023f578485fd5b8491505b8382101562000262578582018301518183018401529082019062000243565b838211156200027357848385830101525b9695505050505050565b60008060006060848603121562000292578283fd5b83516001600160401b0380821115620002a9578485fd5b620002b787838801620001ca565b94506020860151915080821115620002cd578384fd5b620002db87838801620001ca565b93506040860151915080821115620002f1578283fd5b506200030086828701620001ca565b9150509250925092565b600181811c908216806200031f57607f821691505b602082108114156200034157634e487b7160e01b600052602260045260246000fd5b50919050565b634e487b7160e01b600052604160045260246000fd5b6124be806200036d6000396000f3fe6080604052600436106102065760003560e01c806359533d6c11610117578063b228d925116100a5578063d47ac0f41161006c578063d47ac0f4146105e3578063d5abeb0114610602578063e985e9c514610618578063efc0d3d414610661578063f2fde38b1461068e57005b8063b228d92514610548578063b88d4fde14610569578063c040e6b814610589578063c87b56dd146105a3578063ce3cd997146105c357005b8063715018a6116100e9578063715018a6146104ca578063771282f6146104df5780638da5cb5b146104f557806395d89b4114610513578063a22cb4651461052857005b806359533d6c1461046c5780635f0d246a146104745780636352211e1461048a57806370a08231146104aa57005b8063190445e1116101945780633ccfd60b116101665780633ccfd60b146103d757806341566585146103ec57806342842e0e1461040c5780634f6ccce71461042c57806355f804b31461044c57005b8063190445e11461034f57806320ea180c1461036557806323b872dd146103975780632f745c59146103b757005b8063095ea7b3116101d8578063095ea7b3146102ce5780631249c58b146102ee57806316c38b3c146102f657806316c61ccc1461031657806318160ddd1461033057005b806301ffc9a71461020f57806306c933d81461024457806306fdde0314610274578063081812fc1461029657005b3661020d57005b005b34801561021b57600080fd5b5061022f61022a36600461207e565b6106ae565b60405190151581526020015b60405180910390f35b34801561025057600080fd5b5061022f61025f366004611f12565b60126020526000908152604090205460ff1681565b34801561028057600080fd5b506102896106d9565b60405161023b91906121cd565b3480156102a257600080fd5b506102b66102b13660046120fc565b61076b565b6040516001600160a01b03909116815260200161023b565b3480156102da57600080fd5b5061020d6102e936600461203b565b610792565b61020d6108ad565b34801561030257600080fd5b5061020d610311366004612064565b610a83565b34801561032257600080fd5b50600e5461022f9060ff1681565b34801561033c57600080fd5b506008545b60405190815260200161023b565b34801561035b57600080fd5b50610341600d5481565b34801561037157600080fd5b506011546103859062010000900460ff1681565b60405160ff909116815260200161023b565b3480156103a357600080fd5b5061020d6103b2366004611f5e565b610a9e565b3480156103c357600080fd5b506103416103d236600461203b565b610acf565b3480156103e357600080fd5b5061020d610b65565b3480156103f857600080fd5b5061020d610407366004611f12565b610c3a565b34801561041857600080fd5b5061020d610427366004611f5e565b610d9f565b34801561043857600080fd5b506103416104473660046120fc565b610dba565b34801561045857600080fd5b5061020d6104673660046120b6565b610e5b565b61020d610e76565b34801561048057600080fd5b50610341600c5481565b34801561049657600080fd5b506102b66104a53660046120fc565b610ff1565b3480156104b657600080fd5b506103416104c5366004611f12565b611051565b3480156104d657600080fd5b5061020d6110d7565b3480156104eb57600080fd5b5061034160105481565b34801561050157600080fd5b50600a546001600160a01b03166102b6565b34801561051f57600080fd5b506102896110e9565b34801561053457600080fd5b5061020d610543366004612012565b6110f8565b34801561055457600080fd5b50601154610385906301000000900460ff1681565b34801561057557600080fd5b5061020d610584366004611f99565b611103565b34801561059557600080fd5b506011546103859060ff1681565b3480156105af57600080fd5b506102896105be3660046120fc565b61113b565b3480156105cf57600080fd5b5061020d6105de366004612114565b6111a2565b3480156105ef57600080fd5b5060115461038590610100900460ff1681565b34801561060e57600080fd5b50610341600f5481565b34801561062457600080fd5b5061022f610633366004611f2c565b6001600160a01b03918216600090815260056020908152604080832093909416825291909152205460ff1690565b34801561066d57600080fd5b5061034161067c366004611f12565b60136020526000908152604090205481565b34801561069a57600080fd5b5061020d6106a9366004611f12565b61122a565b60006001600160e01b0319821663780e9d6360e01b14806106d357506106d3826112a3565b92915050565b6060600080546106e8906123a6565b80601f0160208091040260200160405190810160405280929190818152602001828054610714906123a6565b80156107615780601f1061073657610100808354040283529160200191610761565b820191906000526020600020905b81548152906001019060200180831161074457829003601f168201915b5050505050905090565b6000610776826112f3565b506000908152600460205260409020546001600160a01b031690565b600061079d82610ff1565b9050806001600160a01b0316836001600160a01b031614156108105760405162461bcd60e51b815260206004820152602160248201527f4552433732313a20617070726f76616c20746f2063757272656e74206f776e656044820152603960f91b60648201526084015b60405180910390fd5b336001600160a01b038216148061082c575061082c8133610633565b61089e5760405162461bcd60e51b815260206004820152603e60248201527f4552433732313a20617070726f76652063616c6c6572206973206e6f7420746f60448201527f6b656e206f776e6572206e6f7220617070726f76656420666f7220616c6c00006064820152608401610807565b6108a88383611352565b505050565b600e5460ff16156108d05760405162461bcd60e51b815260040161080790612232565b60115460ff1660021461093a5760405162461bcd60e51b815260206004820152602c60248201527f5b4e46545f455243373231204572726f725d2050726573616c6520686173206e60448201526b1bdd08195b991959081e595d60a21b6064820152608401610807565b600f546010541061098d5760405162461bcd60e51b815260206004820152601e60248201527f5b4e46545f455243373231204572726f725d204d696e746564206f75742e00006044820152606401610807565b600d543410156109af5760405162461bcd60e51b81526004016108079061227e565b60115433600090815260136020526040902054630100000090910460ff1611610a405760405162461bcd60e51b815260206004820152603e60248201527f5b4e46545f455243373231204572726f725d205573657220616c72656164792060448201527f6d696e746564206d6178696d756d20616d6f756e7420616c6c6f7765642e00006064820152608401610807565b336000908152601360205260408120805491610a5b836123e1565b909155505060108054906000610a70836123e1565b9190505550610a81336010546113c0565b565b610a8b6113da565b600e805460ff1916911515919091179055565b610aa83382611434565b610ac45760405162461bcd60e51b8152600401610807906122c4565b6108a88383836114b3565b6000610ada83611051565b8210610b3c5760405162461bcd60e51b815260206004820152602b60248201527f455243373231456e756d657261626c653a206f776e657220696e646578206f7560448201526a74206f6620626f756e647360a81b6064820152608401610807565b506001600160a01b03919091166000908152600660209081526040808320938352929052205490565b610b6d6113da565b6000610b81600a546001600160a01b031690565b90506000816001600160a01b03164760405160006040518083038185875af1925050503d8060008114610bd0576040519150601f19603f3d011682016040523d82523d6000602084013e610bd5565b606091505b5050905080610c365760405162461bcd60e51b815260206004820152602760248201527f5b4e46545f455243373231204572726f725d204661696c656420746f2073656e604482015266321022ba3432b960c91b6064820152608401610807565b5050565b610c426113da565b3360009081526012602052604090205460ff1615610cc85760405162461bcd60e51b815260206004820152603c60248201527f5b4e46545f455243373231204572726f725d205468697320616464726573732060448201527f697320616c7265616479206265656e2077686974656c69737465642e000000006064820152608401610807565b60115460ff6101008204811691610ce8916201000090910416600161232a565b60ff161115610d455760405162461bcd60e51b8152602060048201526024808201527f5b57686974656c697374204572726f725d2057686974656c69737420697320666044820152633ab6361760e11b6064820152608401610807565b6011805462010000900460ff16906002610d5e836123fc565b825460ff9182166101009390930a9283029190920219909116179055506001600160a01b03166000908152601260205260409020805460ff19166001179055565b6108a883838360405180602001604052806000815250611103565b6000610dc560085490565b8210610e285760405162461bcd60e51b815260206004820152602c60248201527f455243373231456e756d657261626c653a20676c6f62616c20696e646578206f60448201526b7574206f6620626f756e647360a01b6064820152608401610807565b60088281548110610e4957634e487b7160e01b600052603260045260246000fd5b90600052602060002001549050919050565b610e636113da565b8051610c3690600b906020840190611dd7565b600e5460ff1615610e995760405162461bcd60e51b815260040161080790612232565b60115460ff16600114610f015760405162461bcd60e51b815260206004820152602a60248201527f5b4e46545f455243373231204572726f725d2050726573616c65206973206e6f6044820152693a10393ab73734b7339760b11b6064820152608401610807565b3360009081526012602052604090205460ff16610f7c5760405162461bcd60e51b815260206004820152603360248201527f5b4e46545f455243373231204572726f725d205468697320616464726573732060448201527234b9903737ba103bb434ba32b634b9ba32b21760691b6064820152608401610807565b600f5460105410610fcf5760405162461bcd60e51b815260206004820152601e60248201527f5b4e46545f455243373231204572726f725d204d696e746564206f75742e00006044820152606401610807565b600c543410156109af5760405162461bcd60e51b81526004016108079061227e565b6000818152600260205260408120546001600160a01b0316806106d35760405162461bcd60e51b8152602060048201526018602482015277115490cdcc8c4e881a5b9d985b1a59081d1bdad95b88125160421b6044820152606401610807565b60006001600160a01b0382166110bb5760405162461bcd60e51b815260206004820152602960248201527f4552433732313a2061646472657373207a65726f206973206e6f7420612076616044820152683634b21037bbb732b960b91b6064820152608401610807565b506001600160a01b031660009081526003602052604090205490565b6110df6113da565b610a81600061165a565b6060600180546106e8906123a6565b610c363383836116ac565b61110d3383611434565b6111295760405162461bcd60e51b8152600401610807906122c4565b6111358484848461177b565b50505050565b6060611146826112f3565b60006111506117ae565b90506000815111611170576040518060200160405280600081525061119b565b8061117a846117bd565b60405160200161118b929190612161565b6040516020818303038152906040525b9392505050565b6111aa6113da565b60038160ff16106112145760405162461bcd60e51b815260206004820152602e60248201527f5b4e46545f455243373231204572726f725d2053746167652073686f756c642060448201526d313290181610189030b73210191760911b6064820152608401610807565b6011805460ff191660ff92909216919091179055565b6112326113da565b6001600160a01b0381166112975760405162461bcd60e51b815260206004820152602660248201527f4f776e61626c653a206e6577206f776e657220697320746865207a65726f206160448201526564647265737360d01b6064820152608401610807565b6112a08161165a565b50565b60006001600160e01b031982166380ac58cd60e01b14806112d457506001600160e01b03198216635b5e139f60e01b145b806106d357506301ffc9a760e01b6001600160e01b03198316146106d3565b6000818152600260205260409020546001600160a01b03166112a05760405162461bcd60e51b8152602060048201526018602482015277115490cdcc8c4e881a5b9d985b1a59081d1bdad95b88125160421b6044820152606401610807565b600081815260046020526040902080546001600160a01b0319166001600160a01b038416908117909155819061138782610ff1565b6001600160a01b03167f8c5be1e5ebec7d5bd14f71427d1e84f3dd0314c0f7b2291e5b200ac8c7c3b92560405160405180910390a45050565b610c368282604051806020016040528060008152506118d7565b600a546001600160a01b03163314610a815760405162461bcd60e51b815260206004820181905260248201527f4f776e61626c653a2063616c6c6572206973206e6f7420746865206f776e65726044820152606401610807565b60008061144083610ff1565b9050806001600160a01b0316846001600160a01b0316148061148757506001600160a01b0380821660009081526005602090815260408083209388168352929052205460ff165b806114ab5750836001600160a01b03166114a08461076b565b6001600160a01b0316145b949350505050565b826001600160a01b03166114c682610ff1565b6001600160a01b03161461152a5760405162461bcd60e51b815260206004820152602560248201527f4552433732313a207472616e736665722066726f6d20696e636f72726563742060448201526437bbb732b960d91b6064820152608401610807565b6001600160a01b03821661158c5760405162461bcd60e51b8152602060048201526024808201527f4552433732313a207472616e7366657220746f20746865207a65726f206164646044820152637265737360e01b6064820152608401610807565b61159783838361190a565b6115a2600082611352565b6001600160a01b03831660009081526003602052604081208054600192906115cb908490612363565b90915550506001600160a01b03821660009081526003602052604081208054600192906115f9908490612312565b909155505060008181526002602052604080822080546001600160a01b0319166001600160a01b0386811691821790925591518493918716917fddf252ad1be2c89b69c2b068fc378daa952ba7f163c4a11628f55a4df523b3ef91a4505050565b600a80546001600160a01b038381166001600160a01b0319831681179093556040519116919082907f8be0079c531659141344cd1fd0a4f28419497f9722a3daafe3b4186f6b6457e090600090a35050565b816001600160a01b0316836001600160a01b0316141561170e5760405162461bcd60e51b815260206004820152601960248201527f4552433732313a20617070726f766520746f2063616c6c6572000000000000006044820152606401610807565b6001600160a01b03838116600081815260056020908152604080832094871680845294825291829020805460ff191686151590811790915591519182527f17307eab39ab6107e8899845ad3d59bd9653f200f220920489ca2b5937696c31910160405180910390a3505050565b6117868484846114b3565b611792848484846119c2565b6111355760405162461bcd60e51b8152600401610807906121e0565b6060600b80546106e8906123a6565b6060816117e15750506040805180820190915260018152600360fc1b602082015290565b8160005b811561180b57806117f5816123e1565b91506118049050600a8361234f565b91506117e5565b60008167ffffffffffffffff81111561183457634e487b7160e01b600052604160045260246000fd5b6040519080825280601f01601f19166020018201604052801561185e576020820181803683370190505b5090505b84156114ab57611873600183612363565b9150611880600a8661241c565b61188b906030612312565b60f81b8183815181106118ae57634e487b7160e01b600052603260045260246000fd5b60200101906001600160f81b031916908160001a9053506118d0600a8661234f565b9450611862565b6118e18383611acf565b6118ee60008484846119c2565b6108a85760405162461bcd60e51b8152600401610807906121e0565b6001600160a01b0383166119655761196081600880546000838152600960205260408120829055600182018355919091527ff3f7a9fe364faab93b216da50a3214154f22a0a2b415b23a84c8169e8b636ee30155565b611988565b816001600160a01b0316836001600160a01b031614611988576119888382611c1d565b6001600160a01b03821661199f576108a881611cba565b826001600160a01b0316826001600160a01b0316146108a8576108a88282611d93565b60006001600160a01b0384163b15611ac457604051630a85bd0160e11b81526001600160a01b0385169063150b7a0290611a06903390899088908890600401612190565b602060405180830381600087803b158015611a2057600080fd5b505af1925050508015611a50575060408051601f3d908101601f19168201909252611a4d9181019061209a565b60015b611aaa573d808015611a7e576040519150601f19603f3d011682016040523d82523d6000602084013e611a83565b606091505b508051611aa25760405162461bcd60e51b8152600401610807906121e0565b805181602001fd5b6001600160e01b031916630a85bd0160e11b1490506114ab565b506001949350505050565b6001600160a01b038216611b255760405162461bcd60e51b815260206004820181905260248201527f4552433732313a206d696e7420746f20746865207a65726f20616464726573736044820152606401610807565b6000818152600260205260409020546001600160a01b031615611b8a5760405162461bcd60e51b815260206004820152601c60248201527f4552433732313a20746f6b656e20616c7265616479206d696e746564000000006044820152606401610807565b611b966000838361190a565b6001600160a01b0382166000908152600360205260408120805460019290611bbf908490612312565b909155505060008181526002602052604080822080546001600160a01b0319166001600160a01b03861690811790915590518392907fddf252ad1be2c89b69c2b068fc378daa952ba7f163c4a11628f55a4df523b3ef908290a45050565b60006001611c2a84611051565b611c349190612363565b600083815260076020526040902054909150808214611c87576001600160a01b03841660009081526006602090815260408083208584528252808320548484528184208190558352600790915290208190555b5060009182526007602090815260408084208490556001600160a01b039094168352600681528383209183525290812055565b600854600090611ccc90600190612363565b60008381526009602052604081205460088054939450909284908110611d0257634e487b7160e01b600052603260045260246000fd5b906000526020600020015490508060088381548110611d3157634e487b7160e01b600052603260045260246000fd5b6000918252602080832090910192909255828152600990915260408082208490558582528120556008805480611d7757634e487b7160e01b600052603160045260246000fd5b6001900381819060005260206000200160009055905550505050565b6000611d9e83611051565b6001600160a01b039093166000908152600660209081526040808320868452825280832085905593825260079052919091209190915550565b828054611de3906123a6565b90600052602060002090601f016020900481019282611e055760008555611e4b565b82601f10611e1e57805160ff1916838001178555611e4b565b82800160010185558215611e4b579182015b82811115611e4b578251825591602001919060010190611e30565b50611e57929150611e5b565b5090565b5b80821115611e575760008155600101611e5c565b600067ffffffffffffffff80841115611e8b57611e8b61245c565b604051601f8501601f19908116603f01168101908282118183101715611eb357611eb361245c565b81604052809350858152868686011115611ecc57600080fd5b858560208301376000602087830101525050509392505050565b80356001600160a01b0381168114611efd57600080fd5b919050565b80358015158114611efd57600080fd5b600060208284031215611f23578081fd5b61119b82611ee6565b60008060408385031215611f3e578081fd5b611f4783611ee6565b9150611f5560208401611ee6565b90509250929050565b600080600060608486031215611f72578081fd5b611f7b84611ee6565b9250611f8960208501611ee6565b9150604084013590509250925092565b60008060008060808587031215611fae578081fd5b611fb785611ee6565b9350611fc560208601611ee6565b925060408501359150606085013567ffffffffffffffff811115611fe7578182fd5b8501601f81018713611ff7578182fd5b61200687823560208401611e70565b91505092959194509250565b60008060408385031215612024578182fd5b61202d83611ee6565b9150611f5560208401611f02565b6000806040838503121561204d578182fd5b61205683611ee6565b946020939093013593505050565b600060208284031215612075578081fd5b61119b82611f02565b60006020828403121561208f578081fd5b813561119b81612472565b6000602082840312156120ab578081fd5b815161119b81612472565b6000602082840312156120c7578081fd5b813567ffffffffffffffff8111156120dd578182fd5b8201601f810184136120ed578182fd5b6114ab84823560208401611e70565b60006020828403121561210d578081fd5b5035919050565b600060208284031215612125578081fd5b813560ff8116811461119b578182fd5b6000815180845261214d81602086016020860161237a565b601f01601f19169290920160200192915050565b6000835161217381846020880161237a565b83519083019061218781836020880161237a565b01949350505050565b6001600160a01b03858116825284166020820152604081018390526080606082018190526000906121c390830184612135565b9695505050505050565b60208152600061119b6020830184612135565b60208082526032908201527f4552433732313a207472616e7366657220746f206e6f6e20455243373231526560408201527131b2b4bb32b91034b6b83632b6b2b73a32b960711b606082015260800190565b6020808252602c908201527f5b4e46545f455243373231204572726f725d20436f6e7472616374206375727260408201526b195b9d1b1e481c185d5cd95960a21b606082015260800190565b60208082526026908201527f5b4e46545f455243373231204572726f725d20496e73756666696369656e742060408201526532ba3432b91760d11b606082015260800190565b6020808252602e908201527f4552433732313a2063616c6c6572206973206e6f7420746f6b656e206f776e6560408201526d1c881b9bdc88185c1c1c9bdd995960921b606082015260800190565b6000821982111561232557612325612430565b500190565b600060ff821660ff84168060ff0382111561234757612347612430565b019392505050565b60008261235e5761235e612446565b500490565b60008282101561237557612375612430565b500390565b60005b8381101561239557818101518382015260200161237d565b838111156111355750506000910152565b600181811c908216806123ba57607f821691505b602082108114156123db57634e487b7160e01b600052602260045260246000fd5b50919050565b60006000198214156123f5576123f5612430565b5060010190565b600060ff821660ff81141561241357612413612430565b60010192915050565b60008261242b5761242b612446565b500690565b634e487b7160e01b600052601160045260246000fd5b634e487b7160e01b600052601260045260246000fd5b634e487b7160e01b600052604160045260246000fd5b6001600160e01b0319811681146112a057600080fdfea26469706673582212205488ea733e2909c86b859b7720629c7f22bcca47ec29d93d38452658b5716a9d64736f6c63430008040033",
  "linkReferences": {},
  "deployedLinkReferences": {}
}